:020000040800F2
:1000000000500020C515000861150008691500089A
:10001000711500087915000881150008000000001E
:10002000000000000000000000000000891500082A
:100030009515000800000000A1150008AD15000886
:100040000D1600080D1600080D1600080D16000804
:100050000D1600080D1600080D1600080D160008F4
:100060000D1600080D1600080D1600080D160008E4
:100070000D1600080D1600080D1600080D160008D4
:100080000D1600080D1600080D1600080D160008C4
:100090000D1600080D1600080D1600080D160008B4
:1000A0000D1600080D1600080D1600080D160008A4
:1000B0000D1600080D1600080D1600080D16000894
:1000C0000D1600080D1600080D1600080D16000884
:1000D0000D1600080D1600080D1600080D16000874
:1000E0000D1600080D1600080D160008000000008F
:1000F0000000000000000000000000000000000000
:0C01000000000000000000005FF808F1A3
:10010C0010B5054C237833B9044B13B10448AFF345
:10011C0000800123237010BD64000020000000004B
:10012C00C83A000808B5034B1BB103490348AFF3A9
:10013C00008008BD0000000068000020C83A0008DC
:10014C0080F0004002E000BF81F0004142001FBF80
:10015C005FEA410392EA030F7FEA226C7FEA236C89
:10016C006AD04FEA1262D2EB1363C1BFD21841407E
:10017C0048404140B8BF5B42192B88BF704710F014
:10018C00004F40F4000020F07F4018BF404211F0B7
:10019C00004F41F4000121F07F4118BF494292EA1F
:1001AC00030F3FD0A2F1010241FA03FC10EB0C004B
:1001BC00C3F1200301FA03F100F0004302D54942D8
:1001CC0060EB4000B0F5000F13D3B0F1807F06D385
:1001DC0040084FEA310102F10102FE2A51D2B1F17D
:1001EC00004F40EBC25008BF20F0010040EA030072
:1001FC007047490040EB0000013A28BFB0F5000FF2
:10020C00EDD2B0FA80FCACF1080CB2EB0C0200FAA7
:10021C000CF0AABF00EBC25052421843BCBFD040F6
:10022C001843704792F0000F81F4000106BF80F470
:10023C0000000132013BB5E74FEA41037FEA226C33
:10024C0018BF7FEA236C21D092EA030F04D092F0FE
:10025C00000F08BF0846704790EA010F1CBF002032
:10026C00704712F07F4F04D1400028BF40F000408F
:10027C00704712F100723CBF00F50000704700F0AF
:10028C00004343F0FE4040F4000070477FEA2262D6
:10029C0016BF08467FEA23630146420206BF5FEAA7
:1002AC00412390EA010F40F4800070474FF00003A7
:1002BC0004E000BF10F0004348BF40425FEA000C6E
:1002CC0008BF704743F0964301464FF000001CE016
:1002DC0050EA010208BF70474FF000030AE000BF6C
:1002EC0050EA010208BF704711F0004302D54042AA
:1002FC0061EB41015FEA010C02BF8446014600201C
:10030C0043F0B64308BFA3F18053A3F50003BCFA36
:10031C008CF2083AA3EBC25310DB01FA02FC6344E3
:10032C0000FA02FCC2F12002BCF1004F20FA02F2EA
:10033C0043EB020008BF20F00100704702F12002DD
:10034C0001FA02FCC2F1200250EA4C0021FA02F23E
:10035C0043EB020008BF20EADC7070474FF0FF0C43
:10036C001CEAD0521EBF1CEAD15392EA0C0F93EA3E
:10037C000C0F6FD01A4480EA010C400218BF5FEAE0
:10038C0041211ED04FF0006343EA501043EA511153
:10039C00A0FB01310CF00040B1F5000F3EBF49004D
:1003AC0041EAD3715B0040EA010062F17F02FD2A51
:1003BC001DD8B3F1004F40EBC25008BF20F0010034
:1003CC00704790F0000F0CF0004C08BF49024CEA4B
:1003DC00502040EA51207F3AC2BFD2F1FF0340EADD
:1003EC00C250704740F400004FF00003013A5DDC4E
:1003FC0012F1190FDCBF00F000407047C2F100028F
:10040C00410021FA02F1C2F1200200FA02FC5FEA7B
:10041C00310040F1000053EA4C0308BF20EADC70C5
:10042C00704792F0000F00F0004C02BF400010F437
:10043C00000F013AF9D040EA0C0093F0000F01F0E4
:10044C00004C02BF490011F4000F013BF9D041EA06
:10045C000C018FE70CEAD15392EA0C0F18BF93EA08
:10046C000C0F0AD030F0004C18BF31F0004CD8D132
:10047C0080EA010000F00040704790F0000F17BFB9
:10048C0090F0004F084691F0000F91F0004F14D0FF
:10049C0092EA0C0F01D142020FD193EA0C0F03D157
:1004AC004B0218BF084608D180EA010000F000405A
:1004BC0040F0FE4040F40000704740F0FE4040F435
:1004CC00400070474FF0FF0C1CEAD0521EBF1CEAD4
:1004DC00D15392EA0C0F93EA0C0F69D0A2EB0302F2
:1004EC0080EA010C49024FEA402037D04FF080538C
:1004FC0043EA111143EA10130CF000408B4238BF51
:10050C005B0042F17D024FF4000C8B4224BF5B1A5E
:10051C0040EA0C00B3EB510F24BFA3EB510340EAAC
:10052C005C00B3EB910F24BFA3EB910340EA9C005A
:10053C00B3EBD10F24BFA3EBD10340EADC001B01CA
:10054C0018BF5FEA1C1CE0D1FD2A3FF650AF8B426E
:10055C0040EBC25008BF20F0010070470CF0004C7B
:10056C004CEA50207F32C2BFD2F1FF0340EAC250A6
:10057C00704740F400004FF00003013A37E792F067
:10058C00000F00F0004C02BF400010F4000F013AC5
:10059C00F9D040EA0C0093F0000F01F0004C02BFC0
:1005AC00490011F4000F013BF9D041EA0C0195E729
:1005BC000CEAD15392EA0C0F08D142027FF47DAFC2
:1005CC0093EA0C0F7FF470AF084676E793EA0C0FB2
:1005DC0004D14B023FF44CAF08466EE730F0004CB0
:1005EC0018BF31F0004CCAD130F000427FF45CAF40
:1005FC0031F000437FF43CAF5FE700BF4FF0FF3CAE
:10060C0006E000BF4FF0010C02E000BF4FF0010C00
:10061C004DF804CD4FEA40024FEA41037FEA226CC9
:10062C0018BF7FEA236C11D001B052EA530C18BFEB
:10063C0090EA010F58BFB2EB030088BFC81738BF50
:10064C006FEAE17018BF40F0010070477FEA226C3E
:10065C0002D15FEA402C05D17FEA236CE4D15FEA3A
:10066C00412CE1D05DF8040B704700BF844608466E
:10067C006146FFE70FB5FFF7C9FF002848BF10F12F
:10068C00000F0FBD4DF808EDFFF7F4FF0CBF012074
:10069C0000205DF808FB00BF4DF808EDFFF7EAFFFE
:1006AC0034BF012000205DF808FB00BF4DF808EDB9
:1006BC00FFF7E0FF94BF012000205DF808FB00BFAE
:1006CC004DF808EDFFF7D2FF94BF012000205DF834
:1006DC0008FB00BF4DF808EDFFF7C8FF34BF012041
:1006EC0000205DF808FB00BF4FEA4002B2F1FE4F5C
:1006FC000FD34FF09E03B3EB12620DD94FEA0023D8
:10070C0043F0004310F0004F23FA02F018BF4042B0
:10071C0070474FF00000704712F1610F01D1420297
:10072C0005D110F0004008BF6FF0004070474FF04B
:10073C000000704780B58AB000AF00F063FF00F096
:10074C0077F800F071F900F0B3F800F0DFF800F082
:10075C0041F900F06DFB00F029FB2F4A07F118035B
:10076C0007CA83E80700BB691846FFF79FFD0346DD
:10077C002A491846FFF7A6FE0346FB60FB6918469C
:10078C00FFF794FD034625491846FFF79BFE0346E9
:10079C003B613B6A1846FFF789FD03461F49184623
:1007AC00FFF790FE03467B613A4607F10C031146B6
:1007BC00184600F083F93B46184600F007FB7862B8
:1007CC007B6A002B0AD11421142000F099FC012221
:1007DC001349144800F028FD00F0EEFB7B6A012B56
:1007EC000AD11421142000F08BFC01220C490E4874
:1007FC0000F01AFD00F0E0FB7B6A022BB3D1142150
:10080C00142000F07DFC01220549084800F00CFD85
:10081C0000F0D2FBA7E700BF0C3B000800007F43B1
:10082C0000000020F83A0008FC3A0008043B0008DD
:10083C0080B590B000AF07F11803282200211846AC
:10084C0002F0C6FF3B1D00221A605A609A60DA6003
:10085C001A610223BB610123BB621023FB620223DA
:10086C007B630023BB634FF4E013FB6307F11803B6
:10087C00184601F073FF0346002B01D000F0D1FAAB
:10088C000F237B600223BB600023FB6000233B61D2
:10089C0000237B613B1D0121184602F0E1F9034660
:1008AC00002B01D000F0BDFA00BF4037BD4680BD23
:1008BC0080B500AF124B134A1A60114B124A5A60A2
:1008CC000F4B00229A600E4B0022DA600C4B4FF457
:1008DC0080421A610A4B00225A61094B00229A612C
:1008EC00074B0022DA61064B00221A62044801F021
:1008FC006BF90346002B01D000F093FA00BF80BDCA
:10090C008000002000540040801A060080B58CB096
:10091C0000AF07F1200300221A605A609A60DA6077
:10092C0007F10C0300221A605A609A60DA601A61AF
:10093C003B1D00221A605A60254B4FF080421A6012
:10094C00234B00225A60224B00229A60204B4FF618
:10095C00FF72DA601E4B00221A611D4B00229A6155
:10096C001B4802F00BFB0346002B01D000F059FA98
:10097C004FF480533B6207F120031946144802F0F0
:10098C004CFB0346002B01D000F04BFA0023FB601C
:10099C0000233B6107F10C0319460D4802F004FCDF
:1009AC000346002B01D000F03CFA00237B600023AF
:1009BC00BB603B1D1946064802F0CEFD0346002BDA
:1009CC0001D000F02EFA00BF3037BD4680BD00BF0D
:1009DC00D400002080B500AF114B124A1A60104BA6
:1009EC004FF416525A600E4B00229A600C4B0022A8
:1009FC00DA600B4B00221A61094B0C225A61084B2E
:100A0C0000229A61064B0022DA61054802F002FED0
:100A1C000346002B01D000F004FA00BF80BD00BFDC
:100A2C001C0100200038014080B586B000AF07F1F2
:100A3C00080300221A605A609A60DA601D4B9B69A9
:100A4C001C4A43F0040393611A4B9B6903F00403A3
:100A5C007B607B68174B9B69164A43F008039361D4
:100A6C00144B9B6903F008033B603B6800228F2109
:100A7C00114801F091F88F23BB600123FB60002328
:100A8C003B6102237B6107F1080319460A4800F019
:100A9C00FFFE2023BB600023FB6002233B6107F1B8
:100AAC0008031946044800F0F3FE00BF1837BD4692
:100ABC0080BD00BF001002400008014080B5E2B0CC
:100ACC0004AF07F5BC73A3F5BA73186007F5BC73D4
:100ADC00A3F5BC73196007F5BC73A3F5BA702A4B68
:100AEC00029307F58C730193284B00931823284A23
:100AFC000321006800F0FDF807F58C70254B02937C
:100B0C0007F1B8030193244B00931823234A1821AF
:100B1C0000F0EFF807F1B8001E4B029307F15803F1
:100B2C0001931F4B009318231E4A182100F0E1F883
:100B3C0007F15800174B029307F1180301931A4B56
:100B4C0000931023194A182100F0D3F807F118006C
:100B5C000023029307F10C030193154B009303231D
:100B6C00144A102100F0C5F807F5BC73A3F5BC734B
:100B7C0007F10C001A68032100F04DF800BF07F5CF
:100B8C00BC77BD4680BD00BFC50B0008944900086A
:100B9C0074480008ED0B0008F4520008F4490008F2
:100BAC00545C000854530008B4620008B45C00089C
:100BBC00B4630008F462000880B582B000AF7860BE
:100BCC004FF000017868FFF785FD0346002B01D03C
:100BDC007B6801E04FF0000318460837BD4680BD26
:100BEC0080B582B000AF78607B6883F00043184614
:100BFC0002F020FE03464FF07E511846FFF7A6FA8E
:100C0C00034619464FF07E50FFF75CFC034618462E
:100C1C000837BD4680BD90B58BB000AFF860B960A9
:100C2C007A60FB681B687B6201233B6214E03B6AC1
:100C3C009B00FA6813441B681946786AFFF72CFD71
:100C4C000346002B05D03B6A9B00FA6813441B68D3
:100C5C007B623B6A01333B623A6ABB689A42E6DBD1
:100C6C004FF00003FB610023BB6121E0BB699B00DB
:100C7C00FA6813441B68796A1846FFF765FA03464D
:100C8C001946BB699B007A68D418084602F0D2FD5D
:100C9C0003462360BB699B007A6813441B681946A2
:100CAC00F869FFF753FA0346FB61BB690133BB617B
:100CBC00BA69BB689A42D9DB00237B6110E07B697F
:100CCC009B007A68134418687B699B007A68D41877
:100CDC00F969FFF7F7FB034623607B6901337B61FE
:100CEC007A69BB689A42EADB00BF00BF2C37BD466D
:100CFC0090BDB0B586B000AFF860B9607A603B606B
:100D0C0000237B6149E07B699B00BA6A1A447B69CA
:100D1C009B00F96A0B4412681A6000233B6124E0C3
:100D2C007B699B00FA6A13441D683B699B00FA6857
:100D3C00134418687B69BA6803FB02F23B691344DD
:100D4C009B007A6813441B681946FFF707FB0346A0
:100D5C0019467B699B00FA6AD4182846FFF7F6F906
:100D6C00034623603B6901333B613A69BB689A4295
:100D7C00D6DB3B6B002B0DD07B699B00FA6A1344CE
:100D8C0019687B699B00FA6AD4183B6B0846984734
:100D9C00034623607B6901337B617A693B689A4225
:100DAC00B1DB00BF00BF1837BD46B0BD80B500AF8A
:100DBC0001220121044800F0EFFE0022022102482A
:100DCC0000F0EAFE00BF80BD0008014080B586B08F
:100DDC0000AF786000237B617B681B683B6100235C
:100DEC00FB6016E0FB689B007A6813441B6819468D
:100DFC003869FFF751FC0346002B07D0FB689B00BA
:100E0C007A6813441B683B61FB687B61FB680133A8
:100E1C00FB60FB68022BE5DD7B6918461837BD4685
:100E2C0080BD80B400AF72B600BF00BFFDE700000C
:100E3C0080B582B000AF00F01DFA44F620630122A9
:100E4C0078215B4801F002F90346002B01D0002306
:100E5C00A9E040F6C4137B6002E07B68013B7B6039
:100E6C007B68002BF9D1AE220021782000F07CFAAF
:100E7C0020220021782000F077FA1022002178201F
:100E8C0000F072FAB0220021782000F06DFAC8222E
:100E9C000021782000F068FA00220021782000F070
:100EAC0063FA10220021782000F05EFA4022002123
:100EBC00782000F059FA81220021782000F054FAB1
:100ECC00FF220021782000F04FFAA1220021782087
:100EDC0000F04AFAA6220021782000F045FAA82258
:100EEC000021782000F040FA3F220021782000F009
:100EFC003BFAA4220021782000F036FAD3220021FC
:100F0C00782000F031FA00220021782000F02CFA31
:100F1C00D5220021782000F027FAF0220021782039
:100F2C0000F022FAD9220021782000F01DFA2222AA
:100F3C000021782000F018FADA220021782000F045
:100F4C0013FA12220021782000F00EFADB22002185
:100F5C00782000F009FA20220021782000F004FA11
:100F6C008D220021782000F0FFF914220021782036
:100F7C0000F0FAF9AF220021782000F0F5F92E22CA
:100F8C000021782000F0F0F9002000F043F800F088
:100F9C0013F8084B00221A80064B00225A80054B8E
:100FAC0001225A71012318460837BD4680BD00BF87
:100FBC00800000206405002080B582B000AF0023C3
:100FCC00FB711DE0FB79503BDBB21A460021782007
:100FDC0000F0CAF900220021782000F0C5F9102297
:100FEC000021782000F0C0F9FB79DB01084A1A4493
:100FFC0080234021782000F051F9FB790133FB71FB
:10100C00FB79072BDED900BF00BF0837BD4680BD7A
:10101C006401002080B582B000AF0346FB71FB7900
:10102C00002B01D1002300E0FF234FF4806219460E
:10103C00034802F0CDFB00BF0837BD4680BD00BFA2
:10104C006401002080B483B000AF0346FB800B46E4
:10105C00BB801346FB70FB887F2B48D8BB883F2B8B
:10106C0045D8254B1B79002B06D0FB78002B0CBFE9
:10107C0001230023DBB2FB70FB78012B1AD1FA8819
:10108C00BB88DB0898B20346DB0113441B4AD35CD4
:10109C005AB2BB8803F00703012101FA03F35BB2D8
:1010AC00134359B2FA880346DB011344C9B2134AFD
:1010BC00D1541DE0FA88BB88DB0898B20346DB01EB
:1010CC0013440E4AD35C5AB2BB8803F007030121C8
:1010DC0001FA03F35BB2DB435BB2134059B2FA88FB
:1010EC000346DB011344C9B2044AD15400E000BFEB
:1010FC000C37BD4680BC704764050020640100209D
:10110C0080B483B000AF03460A46FB801346BB8015
:10111C00054AFB881380044ABB88538000BF0C37F8
:10112C00BD4680BC704700BF6405002080B586B00A
:10113C0000AF03463960FB711346BB71394B1B88FA
:10114C001A463B681B7813447F2B07DC354B5B88B6
:10115C001A463B685B7813443F2B01DD00235DE0AE
:10116C0000237B614BE03B685A68FB79203B396874
:10117C00497801FB03F319467B690B445B0013446C
:10118C001B88FB6000233B6130E0FA683B6902FA84
:10119C0003F303F40043002B10D0224B1A883B6955
:1011AC009BB2134498B21F4B5A887B699BB2134471
:1011BC009BB2BA791946FFF745FF14E0194B1A8810
:1011CC003B699BB2134498B2164B5A887B699BB20D
:1011DC00134499B2BB79002B0CBF01230023DBB263
:1011EC001A46FFF72FFF3B6901333B613B681B78C5
:1011FC001A463B699342C8D37B6901337B613B68D8
:10120C005B781A467B699342ADD3064B1B883A68D0
:10121C00127813449AB2034B1A80FB79184618378C
:10122C00BD4680BD6405002080B584B000AFF86079
:10123C00B9601346FB7112E0FB681B78FA79B96848
:10124C001846FFF773FF03461A46FB681B789A4251
:10125C0002D0FB681B7808E0FB680133FB60FB687D
:10126C001B78002BE8D1FB681B7818461037BD465D
:10127C0080BD000080B483B000AF074B7B6002E000
:10128C007B68013B7B607B68002BF9D100BF00BF02
:10129C000C37BD4680BC704790D0030090B5C7B0EA
:1012AC0002AF0446084607F58871A1F588710A60FB
:1012BC00194607F58873A3F2091322461A7007F52D
:1012CC008873A3F5857302461A7007F58873A3F526
:1012DC0086730A461A8007F58873A3F5827307F59F
:1012EC008872A2F5857212781A70002387F80F3174
:1012FC0015E097F80F3107F58872A2F5887212681D
:10130C001A4497F80F310133117807F58872A2F55A
:10131C008272D15497F80F31013387F80F3197F857
:10132C000F319BB207F58872A2F5867212889A4229
:10133C00DFD807F58873A3F209131B7899B207F568
:10134C008873A3F586731B8801339BB207F10C02DB
:10135C000A200090034800F07BFD00BF07F58A7758
:10136C00BD4690BD8000002080B586B002AF03461C
:10137C00FB710B46BB7113467B71BB793B737B795D
:10138C007B73FB7999B207F10C020A2300930223B9
:10139C00034800F05DFD00BF1037BD4680BD00BFA7
:1013AC008000002080B485B000AF154B9B69144AB7
:1013BC0043F001039361124B9B6903F00103BB6083
:1013CC00BB680F4BDB690E4A43F08053D3610C4B67
:1013DC00DB6903F080537B607B680A4B5B68FB60C6
:1013EC00FB6823F0E063FB60FB6843F08073FB60F9
:1013FC00044AFB68536000BF1437BD4680BC70477D
:10140C00001002400000014080B588B000AF786049
:10141C0007F1100300221A605A609A60DA607B6848
:10142C001B68154A934223D1144B9B69134A43F012
:10143C0008039361114B9B6903F00803FB60FB6885
:10144C00C0233B6112237B610323FB6107F1100373
:10145C0019460B4800F01CFA084BDB69074A43F4A9
:10146C000013D361054BDB6903F40013BB60BB684D
:10147C0000BF2037BD4680BD005400400010024024
:10148C00000C014080B485B000AF78607B681B68AD
:10149C00B3F1804F0BD1084BDB69074A43F00103D2
:1014AC00D361054BDB6903F00103FB60FB6800BFF4
:1014BC001437BD4680BC70470010024080B588B020
:1014CC0000AF786007F1100300221A605A609A602E
:1014DC00DA607B681B681C4A934231D11B4B9B69B9
:1014EC001A4A43F480439361184B9B6903F480437D
:1014FC00FB60FB68154B9B69144A43F00403936132
:10150C00124B9B6903F00403BB60BB684FF4007380
:10151C003B6102237B610323FB6107F11003194636
:10152C000B4800F0B5F94FF480633B6100237B61FD
:10153C000023BB6107F110031946054800F0A8F918
:10154C0000BF2037BD4680BD00380140001002406E
:10155C000008014080B400AF00BFFDE780B400AFCD
:10156C0000BFFDE780B400AF00BFFDE780B400AF63
:10157C0000BFFDE780B400AF00BFFDE780B400AF53
:10158C0000BFBD4680BC704780B400AF00BFBD46F5
:10159C0080BC704780B400AF00BFBD4680BC7047B4
:1015AC0080B500AF00F074F800BF80BD80B400AF10
:1015BC0000BFBD4680BC7047FFF7F8FF0B480C49D5
:1015CC000C4A002302E0D458C4500433C4188C4293
:1015DC00F9D3094A094C002301E013600432A242FA
:1015EC00FBD302F003F9FFF7A5F8704700000020C9
:1015FC00640000200C64000864000020A806002091
:10160C00FEE7000080B500AF084B1B68074A43F0AB
:10161C0010031360032000F007F90F2000F008F806
:10162C00FFF7C0FE0023184680BD00BF002002401B
:10163C0080B582B000AF7860124B1A68124B1B78E1
:10164C0019464FF47A73B3FBF1F3B2FBF3F318467C
:10165C0000F011F90346002B01D001230EE07B684A
:10166C000F2B0AD8002279684FF0FF3000F0E7F812
:10167C00064A7B681360002300E0012318460837F4
:10168C00BD4680BD08000020100000200C0000208A
:10169C0080B400AF054B1B781A46054B1B681344EE
:1016AC00034A136000BFBD4680BC70471000002089
:1016BC006C05002080B400AF024B1B681846BD4679
:1016CC0080BC70476C05002080B485B000AF78609A
:1016DC007B6803F00703FB600C4BDB68BB60BA68EC
:1016EC004FF6FF031340BB60FB681A02BB68134341
:1016FC0043F0BF6343F40033BB60044ABB68D36060
:10170C0000BF1437BD4680BC704700BF00ED00E041
:10171C0080B400AF044BDB681B0A03F007031846C8
:10172C00BD4680BC704700BF00ED00E080B483B0C4
:10173C0000AF03463960FB7197F90730002B0ADBC9
:10174C003B68DAB20C4997F907301201D2B20B445C
:10175C0083F800230AE03B68DAB20849FB7903F00E
:10176C000F03043B1201D2B20B441A7600BF0C37A4
:10177C00BD4680BC704700BF00E100E000ED00E01A
:10178C0080B489B000AFF860B9607A60FB6803F090
:10179C000703FB61FB69C3F10703042B28BF042378
:1017AC00BB61FB690433062B02D9FB69033B00E0E8
:1017BC0000237B614FF0FF32BB6902FA03F3DA437B
:1017CC00BB681A407B699A404FF0FF317B6901FA84
:1017DC0003F3D9437B680B40134318462437BD46AB
:1017EC0080BC704780B582B000AF78607B68013BED
:1017FC00B3F1807F01D301230FE00A4A7B68013BE0
:10180C0053600F214FF0FF30FFF790FF054B002284
:10181C009A60044B07221A60002318460837BD460D
:10182C0080BD00BF10E000E080B582B000AF7860F2
:10183C007868FFF749FF00BF0837BD4680BD80B50B
:10184C0086B000AF0346B9607A60FB7300237B61FE
:10185C00FFF75EFF78617A68B9687869FFF790FFE7
:10186C00024697F90F3011461846FFF75FFF00BF8D
:10187C001837BD4680BD80B582B000AF78607868FF
:10188C00FFF7B0FF034618460837BD4680BD000081
:10189C0080B48BB000AF7860396000237B6200238A
:1018AC003B6269E101227B6A02FA03F3FB613B684C
:1018BC001B68FA691340BB61BA69FB699A4240F034
:1018CC0058813B685B689A4A93425ED0984A93422F
:1018DC0075D8984A934258D0964A93426FD8964AF4
:1018EC00934252D0944A934269D8944A93424CD032
:1018FC00924A934263D8924A934246D0904A93427A
:10190C005DD8122B2AD8122B59D801A252F823F0E9
:10191C00971900087119000883190008C5190008E7
:10192C00CB190008CB190008CB190008CB190008FB
:10193C00CB190008CB190008CB190008CB190008EB
:10194C00CB190008CB190008CB190008CB190008DB
:10195C00CB190008791900088D190008794A9342AF
:10196C0013D02CE03B68DB683B6229E03B68DB680A
:10197C0004333B6224E03B68DB6808333B621FE0C6
:10198C003B68DB680C333B621AE03B689B68002BBE
:10199C0002D104233B6213E03B689B68012B05D109
:1019AC0008233B627B68FA691A6109E008233B62F1
:1019BC007B68FA695A6103E000233B6200E000BFD8
:1019CC00BB69FF2B01D87B6801E07B6804337B612A
:1019DC00BB69FF2B02D87B6A9B0002E07B6A083B49
:1019EC009B003B617B691A680F213B6901FA03F389
:1019FC00DB431A40396A3B6901FA03F31A437B69EA
:101A0C001A603B685B6803F08053002B00F0B180D8
:101A1C004D4B9B694C4A43F0010393614A4B9B69C4
:101A2C0003F00103BB60BB68484A7B6A9B08023326
:101A3C0052F82330FB607B6A03F003039B000F22F8
:101A4C0002FA03F3DB43FA681340FB607B68404AFD
:101A5C00934213D07B683F4A93420DD07B683E4A39
:101A6C00934207D07B683D4A934201D1032306E0A1
:101A7C00042304E0022302E0012300E000237A6A3D
:101A8C0002F0030292009340FA681343FB602F4963
:101A9C007B6A9B080233FA6841F823203B685B6839
:101AAC0003F48013002B06D02D4B9A682C49BB698C
:101ABC0013438B6006E02A4B9A68BB69DB432849C9
:101ACC0013408B603B685B6803F40013002B06D05B
:101ADC00234BDA682249BB691343CB6006E0204BE9
:101AEC00DA68BB69DB431E491340CB603B685B681B
:101AFC0003F40033002B06D0194B5A681849BB6904
:101B0C0013434B6006E0164B5A68BB69DB43144920
:101B1C0013404B603B685B6803F48033002B21D08F
:101B2C000F4B1A680E49BB6913430B6021E000BFD1
:101B3C0000003210000031100000221000002110B3
:101B4C0000001210000011100010024000000140B3
:101B5C0000080140000C014000100140001401403D
:101B6C00000401400B4B1A68BB69DB430949134065
:101B7C000B607B6A01337B623B681A687B6A22FAD2
:101B8C0003F3002B7FF48EAE00BF00BF2C37BD4695
:101B9C0080BC70470004014080B483B000AF786013
:101BAC000B467B8013467B707B78002B03D07A88A6
:101BBC007B681A6103E07B881A047B681A6100BF9A
:101BCC000C37BD4680BC704780B584B000AF7860E0
:101BDC007B68002B01D101232BE17B6893F83D300E
:101BEC00DBB2002B06D17B68002283F83C2078689E
:101BFC00FFF70AFC7B68242283F83D207B681B6876
:101C0C001A687B681B6822F001021A607B681B68EB
:101C1C001A687B681B6842F400421A607B681B6878
:101C2C001A687B681B6822F400421A6001F060F9A4
:101C3C00F8607B685B68814A934207D8FB68804AEE
:101C4C00934294BF01230023DBB206E0FB687D4A7C
:101C5C00934294BF01230023DBB2002B01D001235C
:101C6C00E7E0FB68784AA2FB03239B0CBB607B6814
:101C7C001B685B6823F03F017B681B68BA680A43EA
:101C8C005A607B681B681B6A23F03F017B685B68AA
:101C9C006A4A934202D8BB68013309E0BB684FF42F
:101CAC00967202FB03F3694AA2FB03239B090133DF
:101CBC007A6812680B4313627B681B68DB6923F438
:101CCC004F4222F0FF027B685B685C498B4219D85B
:101CDC00FB68591E7B685B685B00B1FBF3F3591C16
:101CEC0040F6FC730B40002B0AD0FB68591E7B6836
:101CFC005B685B00B1FBF3F30133C3F30B0351E0FF
:101D0C0004234FE07B689B68002B11D1FB68581EA5
:101D1C007B6859680B465B000B44B0FBF3F3013353
:101D2C00C3F30B03002B0CBF01230023DBB212E027
:101D3C00FB68581E7B6859680B469B000B44990046
:101D4C000B44B0FBF3F30133C3F30B03002B0CBFB9
:101D5C0001230023DBB2002B01D0012322E07B689E
:101D6C009B68002B0ED1FB68581E7B6859680B468C
:101D7C005B000B44B0FBF3F30133C3F30B0343F4ED
:101D8C0000430FE0FB68581E7B6859680B469B00AC
:101D9C000B4499000B44B0FBF3F30133C3F30B0377
:101DAC0043F44043796809681343CB617B681B6833
:101DBC001B6823F0C0017B68DA697B681B6A1A43D5
:101DCC007B681B680A431A607B681B689B6823F45A
:101DDC00034323F0FF037A6811697A68D2681143D0
:101DEC007A6812680B4393607B681B68DB6823F08E
:101DFC00FF017B685A697B689B691A437B681B6887
:101E0C000A43DA607B681B681A687B681B6842F0BF
:101E1C0001021A607B6800221A647B68202283F816
:101E2C003D207B6800221A637B68002283F83E20E9
:101E3C00002318461037BD4680BD00BFA0860100A8
:101E4C007F841E00FF083D0083DE1B43D34D6210D0
:101E5C0080B588B002AFF8607A601A460B467B8179
:101E6C0013463B81FFF726FC7861FB6893F83D3005
:101E7C00DBB2202B40F0E0807B6900931923012218
:101E8C007049F86800F092FA0346002B01D0022347
:101E9C00D3E0FB6893F83C30012B01D10223CCE05A
:101EAC00FB68012283F83C20FB681B681B6803F06D
:101EBC000103012B07D0FB681B681A68FB681B68C1
:101ECC0042F001021A60FB681B681A68FB681B6809
:101EDC0022F400621A60FB68212283F83D20FB6823
:101EEC00102283F83E20FB6800221A64FB687A6893
:101EFC005A62FB683A895A85FB685B8D9AB2FB681B
:101F0C001A85FB68504ADA6279897B693A6AF86803
:101F1C0000F0CAF90346002B01D001238DE0002309
:101F2C003B61FB681B685B693B61FB681B689B69D9
:101F3C003B613B6966E07A69396AF86800F050FBEE
:101F4C000346002B0DD0FB681B6C042B07D1FB68E0
:101F5C001B681A68FB681B6842F400721A60012344
:101F6C006BE0FB685B6A1A78FB681B681A61FB689C
:101F7C005B6A5A1CFB685A62FB685B8D9BB2013B27
:101F8C009AB2FB685A85FB681B8D013B9AB2FB68C1
:101F9C001A85FB681B685B6903F00403042B1BD1D7
:101FAC00FB681B8D002B17D0FB685B6A1A78FB68EB
:101FBC001B681A61FB685B6A5A1CFB685A62FB68F7
:101FCC005B8D9BB2013B9AB2FB685A85FB681B8DFB
:101FDC00013B9AB2FB681A857A69396AF86800F095
:101FEC0047FB0346002B0DD0FB681B6C042B07D161
:101FFC00FB681B681A68FB681B6842F400721A6065
:10200C0001231AE0FB681B8D002B94D1FB681B6825
:10201C001A68FB681B6842F400721A60FB68202285
:10202C0083F83D20FB68002283F83E20FB680022E9
:10203C0083F83C20002300E0022318461837BD46E5
:10204C0080BD00BF020010000000FFFF80B58AB009
:10205C0002AFF8607A603B600B467B81FFF72AFB8E
:10206C00F8610023BB61FB6893F83D30DBB2202B99
:10207C0040F01181FB690093192301228849F8680B
:10208C0000F094F90346002B01D0022304E1FB6815
:10209C0093F83C30012B01D10223FDE0FB680122B7
:1020AC0083F83C20FB681B681B6803F00103012BC1
:1020BC0007D0FB681B681A68FB681B6842F00102BA
:1020CC001A60FB681B681A68FB681B6822F40062C4
:1020DC001A60FB68242283F83D20FB6800221A64F6
:1020EC00FB68704ADA62FB681B681A68FB681B683D
:1020FC0042F480721A60FB6900933B6800224FF037
:10210C000111F86800F052F90346002B0DD0FB6862
:10211C001B681B6803F48073B3F5807F03D1FB68E5
:10212C004FF400721A640323B6E07B89DBB21A46C3
:10213C00FB681B6802F0FE021A61FFF7BBFAF8613C
:10214C00FB681B685B6903F00203022B0CBF0123C5
:10215C000023DBB2FB75FB681B685B6903F48063CF
:10216C00B3F5806F0CBF01230023DBB2BB7525E0F8
:10217C00FFF7A0FA0246FB69D31A3A689A4202D3D7
:10218C003B68002B03D1FB68A02283F83D20FB6841
:10219C001B685B6903F00203022B0CBF01230023B5
:1021AC00DBB2FB75FB681B685B6903F48063B3F5FA
:1021BC00806F0CBF01230023DBB2BB75FB6893F867
:1021CC003D30DBB2A02B05D0FB7D002B02D1BB7DBB
:1021DC00002BCDD0FB68202283F83D20FB681B68C8
:1021EC005B6903F00203022B29D1FB681B681A6898
:1021FC00FB681B6842F400721A6000233B61FB68A9
:10220C001B685B693B61FB681B689B693B613B69B5
:10221C00FB690093192301222149F86800F0C6F8E4
:10222C000346002B01D0012336E0FB68202283F803
:10223C003D20FB68002283F83C2000232CE0FB6847
:10224C001B681A68FB681B6842F400721A60FB6812
:10225C001B686FF480625A61FB6900931923012299
:10226C000F49F86800F0A2F80346002B01D00123B7
:10227C0012E0BB690133BB61BA697B689A42FFF417
:10228C0032AFFB68202283F83D20FB68002283F8E4
:10229C003C20012300E0022318462037BD4680BDB8
:1022AC00020010000000FFFF80B588B002AFF8609C
:1022BC007A603B600B467B81FB68DB6A7B617B69E8
:1022CC00082B06D07B69012B03D07B6913F5803F6B
:1022DC0008D1FB681B681A68FB681B6842F48072A3
:1022EC001A600BE0FB681B6B122B07D1FB681B6899
:1022FC001A68FB681B6842F480721A603B68009392
:10230C007B6800224FF00111F86800F04FF803468B
:10231C00002B0DD0FB681B681B6803F48073B3F5AE
:10232C00807F03D1FB684FF400721A64032335E0FD
:10233C00FB681B69B3F5804F08D17B89DBB21A4669
:10234C00FB681B6802F0FE021A611BE07B89DB1143
:10235C00DBB203F00603DBB263F00F03DAB2FB6807
:10236C001B681A613B687A680E49F86800F098F8A7
:10237C000346002B01D0012310E07B89DAB2FB6805
:10238C001B681A613B687A680749F86800F088F89E
:10239C000346002B01D0012300E000231846183718
:1023AC00BD4680BD080001000200010080B584B06C
:1023BC0000AFF860B9603B601346FB7148E03B68C6
:1023CC00B3F1FF3F44D0FFF775F90246BB69D31A4E
:1023DC003A689A4202D33B68002B39D1BB681B0C7C
:1023EC00DBB2012B0DD1FB681B685B69DA43BB6860
:1023FC0013409BB2002B0CBF01230023DBB21A4607
:10240C000CE0FB681B689B69DA43BB6813409BB20A
:10241C00002B0CBF01230023DBB21A46FB799A4236
:10242C0016D1FB6800221A63FB68202283F83D203A
:10243C00FB68002283F83E20FB681B6C43F02002F3
:10244C00FB681A64FB68002283F83C20012323E01C
:10245C00BB681B0CDBB2012B0DD1FB681B685B69E5
:10246C00DA43BB6813409BB2002B0CBF0123002343
:10247C00DBB21A460CE0FB681B689B69DA43BB684D
:10248C0013409BB2002B0CBF01230023DBB21A4676
:10249C00FB799A4293D0002318461037BD4680BD75
:1024AC0080B584B000AFF860B9607A603B6071E0D1
:1024BC00FB681B685B6903F48063B3F5806F23D101
:1024CC00FB681B681A68FB681B6842F400721A6090
:1024DC00FB681B686FF480625A61FB6800221A6308
:1024EC00FB68202283F83D20FB68002283F83E2005
:1024FC00FB681B6C43F00402FB681A64FB68002247
:10250C0083F83C20012367E07B68B3F1FF3F41D0A7
:10251C00FFF7D0F802463B68D31A7A689A4202D386
:10252C007B68002B36D1BB681B0CDBB2012B0CD1AA
:10253C00FB681B685B69DA43BB6813409BB2002BDA
:10254C0014BF01230023DBB20BE0FB681B689B6903
:10255C00DA43BB6813409BB2002B14BF012300234A
:10256C00DBB2002B16D0FB6800221A63FB6820221A
:10257C0083F83D20FB68002283F83E20FB681B6C2F
:10258C0043F02002FB681A64FB68002283F83C20AD
:10259C00012321E0BB681B0CDBB2012B0CD1FB68C7
:1025AC001B685B69DA43BB6813409BB2002B14BFFA
:1025BC0001230023DBB20BE0FB681B689B69DA4349
:1025CC00BB6813409BB2002B14BF01230023DBB26A
:1025DC00002B7FF46DAF002318461037BD4680BD2D
:1025EC0080B584B000AFF860B9607A6034E0F86808
:1025FC0000F086F80346002B01D0012334E0BB68C1
:10260C00B3F1FF3F28D0FFF755F802467B68D31A89
:10261C00BA689A4202D3BB68002B1DD1FB681B68B9
:10262C005B6903F08003802B16D0FB6800221A63D1
:10263C00FB68202283F83D20FB68002283F83E20B3
:10264C00FB681B6C43F02002FB681A64FB680022D9
:10265C0083F83C20012307E0FB681B685B6903F0EF
:10266C008003802BC3D1002318461037BD4680BD94
:10267C0080B584B000AFF860B9607A6034E0F86877
:10268C0000F03EF80346002B01D0012334E0BB6878
:10269C00B3F1FF3F28D0FFF70DF802467B68D31A41
:1026AC00BA689A4202D3BB68002B1DD1FB681B6829
:1026BC005B6903F00403042B16D0FB6800221A6339
:1026CC00FB68202283F83D20FB68002283F83E2023
:1026DC00FB681B6C43F02002FB681A64FB68002249
:1026EC0083F83C20012307E0FB681B685B6903F05F
:1026FC000403042BC3D1002318461037BD4680BDFC
:10270C0080B483B000AF78607B681B685B6903F4AE
:10271C008063B3F5806F1BD17B681B686FF480629C
:10272C005A617B6800221A637B68202283F83D2063
:10273C007B68002283F83E207B681B6C43F004020C
:10274C007B681A647B68002283F83C20012300E03C
:10275C00002318460C37BD4680BC704780B586B048
:10276C0000AF78607B68002B01D1012372E27B689B
:10277C001B6803F00103002B00F08780924B5B6811
:10278C0003F00C03042B0CD08F4B5B6803F00C0391
:10279C00082B12D18C4B5B6803F48033B3F5803F6C
:1027AC000BD1894B1B6803F40033002B6CD07B6876
:1027BC005B68002B68D101234CE27B685B68B3F546
:1027CC00803F06D1804B1B687F4A43F480331360F3
:1027DC002EE07B685B68002B0CD17B4B1B687A4A24
:1027EC0023F480331360784B1B68774A23F48023DF
:1027FC0013601DE07B685B68B3F5A02F0CD1724BA6
:10280C001B68714A43F4802313606F4B1B686E4A3C
:10281C0043F4803313600BE06B4B1B686A4A23F460
:10282C0080331360684B1B68674A23F48023136062
:10283C007B685B68002B13D0FEF73CFF386108E027
:10284C00FEF738FF02463B69D31A642B01D90323E8
:10285C0000E25D4B1B6803F40033002BF0D014E056
:10286C00FEF728FF386108E0FEF724FF02463B69BB
:10287C00D31A642B01D90323ECE1534B1B6803F4EB
:10288C000033002BF0D100E000BF7B681B6803F025
:10289C000203002B63D04C4B5B6803F00C03002B42
:1028AC000BD0494B5B6803F00C03082B1CD1464B37
:1028BC005B6803F48033002B16D1434B1B6803F089
:1028CC000203002B05D07B681B69012B01D001236F
:1028DC00C0E13D4B1B6823F0F8027B685B69DB00B1
:1028EC00394913430B603AE07B681B69002B20D0FD
:1028FC00364B01221A60FEF7DDFE386108E0FEF768
:10290C00D9FE02463B69D31A022B01D90323A1E15C
:10291C002D4B1B6803F00203002BF0D02A4B1B68D5
:10292C0023F0F8027B685B69DB00274913430B60DB
:10293C0015E0264B00221A60FEF7BCFE386108E059
:10294C00FEF7B8FE02463B69D31A022B01D90323CA
:10295C0080E11D4B1B6803F00203002BF0D17B6858
:10296C001B6803F00803002B3AD07B689B69002B93
:10297C0019D0174B01221A60FEF79CFE386108E053
:10298C00FEF798FE02463B69D31A022B01D90323AA
:10299C0060E10D4B5B6A03F00203002BF0D00120C9
:1029AC0000F0CEFA1CE00A4B00221A60FEF782FE01
:1029BC0038610FE0FEF77EFE02463B69D31A022B0C
:1029CC0008D9032346E100BF001002400000424238
:1029DC0080044242924B5B6A03F00203002BE9D164
:1029EC007B681B6803F00403002B00F0A680002317
:1029FC00FB758B4BDB6903F08053002B0DD1884B9F
:102A0C00DB69874A43F08053D361854BDB6903F064
:102A1C008053BB60BB680123FB75824B1B6803F4BE
:102A2C008073002B18D17F4B1B687E4A43F4807354
:102A3C001360FEF73FFE386108E0FEF73BFE0246EE
:102A4C003B69D31A642B01D9032303E1754B1B6833
:102A5C0003F48073002BF0D07B68DB68012B06D16C
:102A6C006F4B1B6A6E4A43F0010313622DE07B68C7
:102A7C00DB68002B0CD16A4B1B6A694A23F00103FB
:102A8C001362674B1B6A664A23F0040313621CE053
:102A9C007B68DB68052B0CD1614B1B6A604A43F0E9
:102AAC00040313625E4B1B6A5D4A43F0010313621D
:102ABC000BE05B4B1B6A5A4A23F001031362584B21
:102ACC001B6A574A23F0040313627B68DB68002BF4
:102ADC0015D0FEF7EFFD38610AE0FEF7EBFD02467C
:102AEC003B69D31A41F28832934201D90323B1E0F6
:102AFC004B4B1B6A03F00203002BEED014E0FEF7E5
:102B0C00D9FD38610AE0FEF7D5FD02463B69D31AC0
:102B1C0041F28832934201D903239BE0404B1B6A5C
:102B2C0003F00203002BEED1FB7D012B05D13C4BB6
:102B3C00DB693B4A23F08053D3617B68DB69002B54
:102B4C0000F08780364B5B6803F00C03082B61D0D8
:102B5C007B68DB69022B46D1334B00221A60FEF7EF
:102B6C00A9FD386108E0FEF7A5FD02463B69D31AC2
:102B7C00022B01D903236DE0294B1B6803F0007372
:102B8C00002BF0D17B681B6AB3F5803F08D1244B36
:102B9C005B6823F400327B689B68214913434B60CC
:102BAC001F4B5B6823F474127B68196A7B685B6A41
:102BBC000B431B4913434B601B4B01221A60FEF75E
:102BCC0079FD386108E0FEF775FD02463B69D31AC2
:102BDC00022B01D903233DE0114B1B6803F000735A
:102BEC00002BF0D035E0104B00221A60FEF762FD8E
:102BFC00386108E0FEF75EFD02463B69D31A022BF2
:102C0C0001D9032326E0064B1B6803F00073002B4D
:102C1C00F0D11EE07B68DB69012B07D1012319E0A1
:102C2C000010024000700040600042420B4B5B6899
:102C3C00FB60FB6803F480327B681B6A9A4206D106
:102C4C00FB6803F470127B685B6A9A4201D0012323
:102C5C0000E0002318461837BD4680BD0010024026
:102C6C0080B584B000AF786039607B68002B01D1EF
:102C7C000123D0E06A4B1B6803F007033A689A42C1
:102C8C0010D9674B1B6823F0070265493B68134357
:102C9C000B60634B1B6803F007033A689A4201D040
:102CAC000123B8E07B681B6803F00203002B20D0E3
:102CBC007B681B6803F00403002B05D0594B5B6841
:102CCC00584A43F4E06353607B681B6803F00803C5
:102CDC00002B05D0534B5B68524A43F4605353604E
:102CEC00504B5B6823F0F0027B689B684D491343A3
:102CFC004B607B681B6803F00103002B40D07B68A2
:102D0C005B68012B07D1474B1B6803F40033002B86
:102D1C0015D101237FE07B685B68022B07D1414B07
:102D2C001B6803F00073002B09D1012373E03D4BAA
:102D3C001B6803F00203002B01D101236BE0394B1C
:102D4C005B6823F003027B685B68364913434B6076
:102D5C00FEF7B0FCF8600AE0FEF7ACFC0246FB683C
:102D6C00D31A41F28832934201D9032353E02D4BFD
:102D7C005B6803F00C027B685B689B009A42EBD1AA
:102D8C00274B1B6803F007033A689A4210D2244B76
:102D9C001B6823F0070222493B6813430B60204B4E
:102DAC001B6803F007033A689A4201D0012332E012
:102DBC007B681B6803F00403002B08D0194B5B687D
:102DCC0023F4E0627B68DB68164913434B607B6835
:102DDC001B6803F00803002B09D0124B5B6823F42B
:102DEC0060527B681B69DB000E4913434B6000F09B
:102DFC0021F802460B4B5B681B0903F00F030A49D1
:102E0C00CB5C22FA03F3094A1360094B1B68184682
:102E1C00FEF70EFC002318461037BD4680BD00BFE0
:102E2C000020024000100240C0630008080000208F
:102E3C000C00002080B487B000AF0023FB6000239F
:102E4C00BB6000237B6100237B6000233B611E4B36
:102E5C005B68FB60FB6803F00C03042B02D0082BAF
:102E6C0003D027E0194B3B6127E0FB689B0C03F078
:102E7C000F03174AD35C7B60FB6803F48033002B91
:102E8C0010D0114B5B685B0C03F00103114AD35C4F
:102E9C00BB607B680D4A03FB02F2BB68B2FBF3F329
:102EAC007B6104E07B680C4A02FB03F37B617B696A
:102EBC003B6102E0054B3B6100BF3B6918461C3788
:102ECC00BD4680BC704700BF0010024000127A0063
:102EDC00D8630008E863000800093D0080B400AF27
:102EEC00024B1B681846BD4680BC7047080000208A
:102EFC0080B500AFFFF7F2FF0246054B5B681B0A7B
:102F0C0003F007030349CB5C22FA03F3184680BD98
:102F1C0000100240D063000880B500AFFFF7DEFF61
:102F2C000246054B5B68DB0A03F007030349CB5CE5
:102F3C0022FA03F3184680BD00100240D06300084B
:102F4C0080B485B000AF78600A4B1B680A4AA2FBBC
:102F5C0003235B0A7A6802FB03F3FB6000BFFB6888
:102F6C005A1EFA60002BF9D100BF00BF1437BD46C2
:102F7C0080BC704708000020D34D621080B582B031
:102F8C0000AF78607B68002B01D1012341E07B68A6
:102F9C0093F83D30DBB2002B06D17B68002283F81E
:102FAC003C207868FEF76EFA7B68022283F83D209D
:102FBC007B681A687B6804331946104600F036F9B2
:102FCC007B68012283F846207B68012283F83E202F
:102FDC007B68012283F83F207B68012283F8402024
:102FEC007B68012283F841207B68012283F8422010
:102FFC007B68012283F843207B68012283F84420FC
:10300C007B68012283F845207B68012283F83D20F0
:10301C00002318460837BD4680BD80B584B000AF8C
:10302C00786039600023FB737B6893F83C30012B8C
:10303C0001D10223B4E07B68012283F83C207B6839
:10304C00022283F83D207B681B689B68BB60BB68D1
:10305C0023F07703BB60BB6823F47F43BB607B68C2
:10306C001B68BA689A603B681B68B3F5005F3ED07A
:10307C00B3F5005F00F28780B3F5805F00F08680C7
:10308C00B3F5805F7FD8702B1AD0702B7BD8602B58
:10309C0050D0602B77D8502B3CD0502B73D8402B72
:1030AC0058D0402B6FD8302B64D0302B6BD8202BC2
:1030BC0060D0202B67D8002B5CD0102B5AD062E04C
:1030CC007B6818683B6899683B685A683B68DB68A2
:1030DC0000F022FA7B681B689B68BB60BB6843F0FE
:1030EC007703BB607B681B68BA689A604FE07B68AB
:1030FC0018683B6899683B685A683B68DB6800F065
:10310C000BFA7B681B689A687B681B6842F48042E8
:10311C009A603CE07B6818683B6859683B68DB68E0
:10312C001A4600F082F97B681B685021184600F0A3
:10313C00D9F92CE07B6818683B6859683B68DB68F8
:10314C001A4600F0A0F97B681B686021184600F055
:10315C00C9F91CE07B6818683B6859683B68DB68F8
:10316C001A4600F062F97B681B684021184600F093
:10317C00B9F90CE07B681A683B681B681946104665
:10318C0000F0B0F903E00123FB7300E000BF7B68A3
:10319C00012283F83D207B68002283F83C20FB7BD6
:1031AC0018461037BD4680BD80B582B000AF786040
:1031BC0039607B6893F83C30012B01D1022331E05C
:1031CC007B68012283F83C207B68022283F83D2037
:1031DC003968786800F098F80346002B09D07B68B2
:1031EC00012283F83D207B68002283F83C200123D8
:1031FC0018E07B681B68DA687B681B6822F0400269
:10320C00DA607B681B68DA687B681B6822F4804292
:10321C00DA607B68012283F83D207B68002283F80A
:10322C003C20002318460837BD4680BD80B485B0CD
:10323C0000AF786039607B681B68FB607B682F4A45
:10324C0093420BD07B68B3F1804F07D07B682C4A3C
:10325C00934203D07B682B4A934208D1FB6823F03E
:10326C007003FB603B685B68FA681343FB607B6828
:10327C00224A93420BD07B68B3F1804F07D07B6816
:10328C001F4A934203D07B681E4A934208D1FB68C5
:10329C0023F44073FB603B68DB68FA681343FB6004
:1032AC00FB6823F080023B685B691343FB607B681F
:1032BC00FA681A603B689A687B68DA623B681A683D
:1032CC007B689A627B680D4A934203D13B681A690A
:1032DC007B681A637B6801225A617B681B6903F067
:1032EC000103002B05D07B681B6923F001027B686E
:1032FC001A6100BF1437BD4680BC7047002C0140DA
:10330C00000400400008004080B586B000AF786033
:10331C0039600023FB757B681B689B683B613B69CC
:10332C0023F070033B613B685B683A6913433B6174
:10333C003B6923F007033B613B681B683A69134305
:10334C003B617B681B683A699A603B685B68702BD1
:10335C001AD0702B60D8602B54D0602B5CD8502BBB
:10336C0046D0502B58D8402B19D0402B54D8302B4A
:10337C0055D0302B50D8202B51D0202B4CD8002B93
:10338C004DD0102B4BD047E07B6818683B68D96850
:10339C003B689A683B681B6900F0BEF840E03B68EC
:1033AC001B68052B01D101233BE07B681B681B6A62
:1033BC00FB607B681B681A6A7B681B6822F0010241
:1033CC001A627B681B689B69BB60BB6823F0F003C7
:1033DC00BB603B681B691B01BA681343BB607B680D
:1033EC001B68BA689A617B681B68FA681A6217E0F6
:1033FC007B6818683B6899683B681B691A4600F043
:10340C0014F80DE07B6818683B6899683B681B6989
:10341C001A4600F038F803E00123FB7500E000BF0A
:10342C00FB7D18461837BD4680BD80B487B000AF11
:10343C00F860B9607A60FB681B6A7B61FB681B6A89
:10344C0023F00102FB681A62FB689B693B613B69D4
:10345C0023F0F0033B617B681B013A6913433B612A
:10346C007B6923F00A037B617A69BB6813437B6138
:10347C00FB683A699A61FB687A691A6200BF1C376B
:10348C00BD4680BC704780B487B000AFF860B960AF
:10349C007A60FB681B6A7B61FB681B6A23F0100275
:1034AC00FB681A62FB689B693B613B6923F47043C0
:1034BC003B617B681B033A6913433B617B6923F0D7
:1034CC00A0037B61BB681B017A6913437B61FB68BA
:1034DC003A699A61FB687A691A6200BF1C37BD466B
:1034EC0080BC704780B485B000AF786039607B6871
:1034FC009B68FB60FB6823F07003FB603A68FB6819
:10350C00134343F00703FB607B68FA689A6000BFC3
:10351C001437BD4680BC704780B487B000AFF860EC
:10352C00B9607A603B60FB689B687B617B6923F4C4
:10353C007F437B613B681A027B681A43BB68134369
:10354C007A6913437B61FB687A699A6000BF1C3708
:10355C00BD4680BC7047000080B485B000AF786079
:10356C0039607B6893F83C30012B01D1022346E093
:10357C007B68012283F83C207B68022283F83D2083
:10358C007B681B685B68FB607B681B689B68BB6027
:10359C00FB6823F07003FB603B681B68FA681343FD
:1035AC00FB607B681B68FA685A607B681B68164A6C
:1035BC0093420ED07B681B68B3F1804F09D07B68B7
:1035CC001B68124A934204D07B681B68104A9342D2
:1035DC000CD1BB6823F08003BB603B685B68BA68A6
:1035EC001343BB607B681B68BA689A607B680122D6
:1035FC0083F83D207B68002283F83C20002318468A
:10360C001437BD4680BC7047002C014000040040BC
:10361C000008004080B582B000AF78607B68002B5A
:10362C0001D1012342E07B6893F84130DBB2002BDF
:10363C0006D17B68002283F840207868FDF73EFFB6
:10364C007B68242283F841207B681B68DA687B68DE
:10365C001B6822F40052DA60786800F02BF87B6863
:10366C001B681A697B681B6822F490421A617B689C
:10367C001B685A697B681B6822F02A025A617B68B6
:10368C001B68DA687B681B6842F40052DA607B685E
:10369C0000225A647B68202283F841207B68202218
:1036AC0083F842207B6800225A63002318460837AF
:1036BC00BD4680BD80B584B000AF78607B681B6868
:1036CC001B6923F440517B68DA687B681B680A43EA
:1036DC001A617B689A687B681B691A437B685B6913
:1036EC001343BB607B681B68DB6823F4B05323F087
:1036FC000C037A681268B9680B43D3607B681B684B
:10370C005B6923F440717B689A697B681B680A4388
:10371C005A617B681B682C4A934203D1FFF7FCFB70
:10372C00F86002E0FFF7E4FBF860FA6813469B00D0
:10373C0013449A001A447B685B689B00B2FBF3F35A
:10374C00224AA2FB03235B091901FA6813469B006A
:10375C0013449A001A447B685B689B00B2FBF3F23B
:10376C001A4BA3FB02035B09642000FB03F3D31A7F
:10377C001B013233154AA2FB03235B0903F0F00350
:10378C001944FA6813469B0013449A001A447B6848
:10379C005B689B00B2FBF3F20C4BA3FB02035B09CF
:1037AC00642000FB03F3D31A1B013233074AA2FB3C
:1037BC0003235B0903F00F027B681B680A449A60C1
:1037CC0000BF1037BD4680BD003801401F85EB514E
:1037DC0003460244934200D1704703F8011BF9E7FA
:1037EC00014B1868704700BF1400002070B500260C
:1037FC000C4D0D4C641BA410A64209D100F05EF9CF
:10380C0000260A4D0A4C641BA410A64205D170BDBB
:10381C0055F8043B98470136EEE755F8043B9847BA
:10382C000136F2E70464000804640008046400082C
:10383C000864000838B5054600F02AF80446284606
:10384C0000F01EF850B128460B49FCF743FF38B185
:10385C00FFF7C6FF22234FF0FF440360204638BD1C
:10386C0028460649FCF718FF0028F7D0FFF7B8FFE9
:10387C00222300240360F1E71772B142B5F1CFC2E5
:10388C0020F00040B0F1FF4FACBF0020012070478A
:10389C002DE9F84320F00043B3F1FF4F044604D95F
:1038AC000146FCF753FC044605E04FEAD07605D1FF
:1038BC00002E40F0C3802046BDE8F8836049884262
:1038CC0004DDBDE8F843002000F0F3B8002807DA67
:1038DC005C4A934204D9BDE8F843002000F0E5B8F7
:1038EC00594A934271D9594A934251D8584B204660
:1038FC0053F82610FCF728FC0546564B53F8267057
:10390C00C6F10103A3EB060839462846FCF71CFC5C
:10391C00044621462046FCF721FD06464E49FCF79D
:10392C001DFD4E49FCF710FC3146FCF717FD4C49C8
:10393C00FCF70CFC3146FCF711FD4A49FCF704FC82
:10394C003146FCF70BFD4849FCF700FC3146FCF70F
:10395C0005FD01462046FCF7F7FB014606462046CE
:10396C00FCF7FCFC8146B8F1000F43D14FF08041CD
:10397C003046FCF7E9FB01464846FCF7A3FD21461F
:10398C00FCF7E2FB01464FF07E50FCF7DDFB8AE7CB
:10399C0036492046FCF7E2FC354B53F82610FCF771
:1039AC00D5FBFCF7A1FE8046FCF784FC31490646AA
:1039BC00FCF7D4FC01462046FCF7C6FB2E49054615
:1039CC003046FCF7CBFC07469EE7B3F1505F0CD2B8
:1039DC002A492046FCF7BAFB4FF07E51FCF77AFEE1
:1039EC0030B14FF07E5120465BE74FF0000890E776
:1039FC0080468EE731464FF08040FCF7A5FB014630
:103A0C004846FCF75FFD01463846FCF79DFB29460E
:103A1C00FCF79AFB01464FF07E50FCF795FB18F132
:103A2C007D0F02DB00EBC85445E708F164084FF04A
:103A3C00586100EBC850FCF791FC34E700243AE7DE
:103A4C001772B142B5F1CF421872B13E9115853F54
:103A5C00F4630008EC6300084CBB31330EEADD352F
:103A6C0055B38A38610B363BABAA2A3E3BAAB83F0A
:103A7C00FC6300088071313FD1F71737CAF24971E6
:103A8C0038B504460D46FFF7ABFE0560204638BD41
:103A9C0008B540B101F10040FCF760FCBDE80840FE
:103AAC002221FFF7EDBF0846F6E74FF08051FFF7F4
:103ABC00EFBF4FF0E041FFF7EBBF0000F8B500BFE0
:103ACC00F8BC08BC9E467047F8B500BFF8BC08BCF3
:043ADC009E4670474B
:103AE000523A20256C752020473A20256C752020FD
:103AF000423A256C750000005265640047726565A6
:103B00006E000000426C75650000000000000000BF
:103B100088000000FF00000000000000000000001E
:103B20000000000000000000000000000000000095
:103B30000000000000000000000000000000000C79
:103B4000000C000C000C000C000C000C000C000C15
:103B5000000C000C0000000C000C00000000000035
:103B60000000001B001B001B001B001B00000000CE
:103B70000000000000000000000000000000000045
:103B80000000000000008019801980198019C07F92
:103B9000C07F80190033C07FC07F00330033003303
:103BA00000330000000000000000001E003F807590
:103BB00080650074003C001E0007800580658065FC
:103BC0008075003F001E000400040000000000702B
:103BD00000D840D8C0D880D900730006000C801BE4
:103BE000C036C066C046C00680030000000000006A
:103BF0000000001E003F003300330033001E000CA5
:103C0000C03CC066806380618063C03E801C000051
:103C1000000000000000000C000C000C000C000C68
:103C20000000000000000000000000000000000094
:103C300000000000000000008000000100030006FA
:103C400000060004000C000C000C000C000C000C22
:103C500000040006000600030001800000200010A0
:103C60000018000C000C0004000600060006000608
:103C7000000600060004000C000C001800100020D4
:103C80000000000C002D003F001E0033000000006B
:103C90000000000000000000000000000000000024
:103CA00000000000000000000000000C000C000CF0
:103CB000000CC0FFC0FF000C000C000C000C00004A
:103CC00000000000000000000000000000000000F4
:103CD00000000000000000000000000000000000E4
:103CE0000000000C000C00040004000800000000AC
:103CF0000000000000000000000000000000001EA6
:103D0000001E000000000000000000000000000095
:103D100000000000000000000000000000000000A3
:103D200000000000000000000000000C000C00007B
:103D3000000000000000000300030003000600066E
:103D400000060006000C000C000C000C0018001807
:103D500000180000000000000000001E003F0033BB
:103D6000806180618061806D806D80618061806133
:103D70000033003F001E00000000000000000006AD
:103D8000000E001E00360026000600060006000693
:103D90000006000600060006000600000000000005
:103DA0000000001E003F807380618061800100037D
:103DB0000006000C001800300060807F807F00004B
:103DC000000000000000001C003E006300630003D0
:103DD000000E000E00038001800180618073003FAF
:103DE000001E00000000000000000006000E000E93
:103DF000001E001E0016003600360066807F807FA1
:103E00000006000600060000000000000000007F21
:103E1000007F006000600060006E007F80638001B2
:103E2000800180618073003F001E000000000000E0
:103E30000000001E003F803380610060006E007F44
:103E400080738061806180618033003F001E0000CC
:103E5000000000000000807F807F800100030003DD
:103E600000060006000C000C000C000800180018EA
:103E700000180000000000000000001E003F8063EA
:103E8000806180610021001E003F8061806180614F
:103E90008061003F001E0000000000000000001EC6
:103EA000003F00738061806180618073803F801D6E
:103EB000800180610073003F001E000000000000D0
:103EC00000000000000000000000000C000C0000DA
:103ED00000000000000000000000000C000C0000CA
:103EE00000000000000000000000000000000000D2
:103EF000000C000C00000000000000000000000C9E
:103F0000000C000400040008000000000000000095
:103F100080008003000E003800600038000E80032F
:103F20008000000000000000000000000000000011
:103F3000000000000000807F807F00000000807F84
:103F4000807F000000000000000000000000000072
:103F5000000000000000000000400070001C00078E
:103F600080010007001C00700040000000000000FD
:103F7000000000000000001F803FC071C060C00052
:103F8000C00180030007000E000C000C0000000CB4
:103F9000000C0000000000000000001E003F803107
:103FA00080718063806F806D806D806F806700603E
:103FB0000032003E001C0000000000000000000E67
:103FC000000E001B001B001B001B80318031803F56
:103FD000803F8031C060C060C06000000000000011
:103FE0000000007C007E0063006300630063007ECD
:103FF000007E0063806180618063007F007E00003E
:10400000000000000000001E003F80318061006061
:104010000060006000600060006080618031003FEF
:10402000001E0000000000000000007C007F006314
:1040300080638061806180618061806180610063F4
:104040000063007E007C0000000000000000807F14
:10405000807F0060006000600060007F007F006083
:10406000006000600060807F807F00000000000032
:104070000000807F807F0060006000600060007F43
:10408000007F006000600060006000600060000071
:10409000000000000000001E003F803180610060D1
:1040A0000060006080638063806180618031803F58
:1040B000001E00000000000000008061806180613F
:1040C000806180618061807F807F806180618061AC
:1040D0008061806180610000000000000000003FFE
:1040E000003F000C000C000C000C000C000C000C3D
:1040F000000C000C000C003F003F0000000000001E
:104100000000800180018001800180018001800128
:1041100080018001806180618073003F001E00008B
:10412000000000000000C06080610063006600665F
:10413000006C0078007C006600660063806180612E
:10414000C06000000000000000000060006000602F
:10415000006000600060006000600060006000605F
:104160000060807F807F0000000000000000C071C0
:10417000C071C07BC07AC06AC06AC06EC064C060D3
:10418000C060C060C060C060C0600000000000008F
:10419000000080718071807980798079806D806D78
:1041A000806D8065806780678067806380630000C2
:1041B000000000000000001E003F003380618061AD
:1041C0008061806180618061806180610033003F37
:1041D000001E0000000000000000007E007F8063E1
:1041E0008061806180618063007F007E006000608C
:1041F0000060006000600000000000000000001E81
:10420000003F0033806180618061806180618061F6
:10421000806580670033803F401E00000000000082
:104220000000007E007F8063806180618063007F8A
:10423000007E00660063006380618061C0600000F2
:10424000000000000000000E001F803180310030AF
:104250000038001E00078003806180618031003FCC
:10426000001E0000000000000000C0FFC0FF000CA6
:10427000000C000C000C000C000C000C000C000CDE
:10428000000C000C000C0000000000000000806129
:104290008061806180618061806180618061806116
:1042A000806180618073003F001E000000000000FC
:1042B0000000C060C060C060803180318031001B70
:1042C000001B001B001B000E000E000E000400006F
:1042D000000000000000C0C0C0C0C0C0C0C0C0C05E
:1042E000C0CC804C804C805E805280528073806154
:1042F00080610000000000000000C0C0806080619C
:104300000033003B001E000C000C001E001F003B91
:1043100080718061C0C00000000000000000C0C0CB
:104320008061806100330033001E001E000C000C11
:10433000000C000C000C000C000C00000000000041
:104340000000803F803F8001000300030006000C56
:10435000000C0018001800300060807F807F000093
:1043600000000000000F000F000C000C000C000CFF
:10437000000C000C000C000C000C000C000C000CDD
:10438000000C000C000F000F0000001800180018AF
:10439000000C000C000C000C0006000600060006D5
:1043A000000300030003000000000000001E001EC8
:1043B00000060006000600060006000600060006CD
:1043C000000600060006000600060006001E001E8D
:1043D0000000000C000C001E00120033003380614E
:1043E00080610000000000000000000000000000EC
:1043F00000000000000000000000000000000000BD
:1044000000000000000000000000000000000000AC
:1044100000000000E0FF0000000000380018000C61
:10442000000000000000000000000000000000008C
:10443000000000000000000000000000000000007C
:10444000000000000000001F803F80618001801F8D
:10445000803F80618063807FC038000000000000E2
:1044600000000060006000600060006E007F8073EC
:1044700080618061806180618073007F006E0000D8
:104480000000000000000000000000000000001E0E
:10449000003F807380610060006080618073003F36
:1044A000001E00000000000000008001800180016B
:1044B0008001801D803F80738061806180618061A8
:1044C0008073803F801D000000000000000000009D
:1044D000000000000000001E003F00738061807F2C
:1044E000807F00608071003F001E0000000000001F
:1044F0000000C007C00F000C000C807F807F000C04
:10450000000C000C000C000C000C000C000C000057
:10451000000000000000000000000000801D803F3F
:10452000807380618061806180618073803F801DC5
:1045300080018063007F003E00000060006000603A
:104540000060006F807F8071806180618061806128
:1045500080618061806100000000000000000006B2
:10456000000600000000003E003E000600060006B7
:10457000000600060006000600060000000000001D
:104580000006000600000000003E003E0006000697
:1045900000060006000600060006000600060046AB
:1045A000007E003C000000600060006000608061F0
:1045B00000630066006C007C00760063006380612D
:1045C000C0600000000000000000003E003E000649
:1045D00000060006000600060006000600060006AB
:1045E00000060006000600000000000000000000B9
:1045F00000000000000080DDC0FFC0CEC0CCC0CCF9
:10460000C0CCC0CCC0CCC0CCC0CC000000000000EE
:1046100000000000000000000000006F807F80713B
:104620008061806180618061806180618061000063
:104630000000000000000000000000000000001E5C
:10464000003F807380618061806180618073003F82
:10465000001E00000000000000000000000000003C
:10466000006E007F807380618061806180618073F3
:10467000007F006E006000600060006000000000CD
:1046800000000000801D803F807380618061806138
:1046900080618073803F801D8001800180018001E6
:1046A000000000000000000000000067803F0039AB
:1046B00000300030003000300030003000300000AA
:1046C0000000000000000000000000000000001ECC
:1046D000803F80610060007F803F80018061007FBB
:1046E000001E00000000000000000000000800188C
:1046F0000018007F007F001800180018001800182C
:104700000018801F800F0000000000000000000063
:104710000000000000008061806180618061806134
:10472000806180618063807F803D00000000000028
:1047300000000000000000000000C06080318031F7
:104740008031001B001B001B000E000E0006000045
:10475000000000000000000000000000000080DDFC
:1047600080DD80DD00550055005500770077002280
:104770000022000000000000000000000000000017
:104780000000806100330033001E000C000C001E8E
:1047900000330033806100000000000000000000D2
:1047A0000000000080618061803100330033001B15
:1047B000001B001B000E000E000E001C007C007091
:1047C00000000000000000000000C07FC07F8001EA
:1047D00000030006000C00180030C07FC07F0000FE
:1047E00000000000800380070006000600060006A7
:1047F0000006000E001C001C000E0006000600064D
:10480000000600068007800300060006000600067A
:104810000006000600060006000600060006000668
:104820000006000600060006000600060038003CF0
:10483000000C000C000C000C000C000E0007000720
:10484000000E000C000C000C000C000C003C0038AA
:1048500000000000000000000000000000008038A0
:10486000807F004700000000000000000000000002
:10487000000000001D0180BFAB26883B846784BF19
:10488000168783BF763284BF6493FCBB888384BB66
:10489000F164873F3F8B253BFD6B79BF0344913F1C
:1048A00013EE913FE23A7ABF0B46933F894421BC15
:1048B00036758A3FD3D8763F7844853B3CF9F4BAC5
:1048C0003F1C80BF632A83BF983531BADD22B0BC5C
:1048D00029252CBF49DB243F751F00BC0C1F313F2D
:1048E00045BA333F7BA02D3FDBC273BC7233DCB9CA
:1048F000E528E8BEF77560BCD8F51B3FFB90FFBE0E
:10490000984D00BF31241B3F304707BF9599D23BDC
:104910005A2AEFBE624BBFBE4ED111BCA8A70F3AB8
:104920005F62243FCCEE2D3FF6B619BCB56E83BC5A
:10493000BAD98F3EF5BC1B3F971A21BC9886213F00
:10494000C0EA243FB7B3233FF818ACBA2E53133A4A
:104950006939B8BEC7BC8EBB42CE0F3F6953E5BEB6
:104960001D1FE5BEB4AF103F611CDCBE67D73DBC68
:104970001EE0C9BEBC5B91BE78D06CBCA01B9ABCCB
:104980007E37193F276A213FA93377BBA30653BA65
:1049900032741C3E2618B63E9F71E1B93A06BC3E01
:1049A000E755B53ED656BC3E0000000000000000B2
:1049B0003849633E000000001AA6B63E51A4933E5B
:1049C000E3AA923EE7C7B73E795B913EDAE6C6BB03
:1049D000AAD77D3EA6F11B3E00000000F7CC92BA9C
:1049E000CE39B83EDCA1B93E000000000000000056
:1049F00088BC853ED95B7ABFFFCD73BF568378BF35
:104A0000F2B57BBFD19372BF1D5A74BF719177BF4E
:104A1000344871BFF8E273BF850775BF41EF79BFB6
:104A2000503A71BF718E76BF11FD72BF63D574BFEE
:104A3000E01377BF346870BFA5DB76BF8C2B7ABFDD
:104A4000B5A87BBF878877BF297A74BFB5167ABFB0
:104A5000B60F75BFC9CB9ABB7174953B4E4615BC5A
:104A60006B7D113A613596BAD2C3D0BBA48CB8BA6B
:104A7000DBBFB23BBAF8DBBB2315C6BB1A69293BC7
:104A8000AFCF1CBCB587BDBB0FB82EBCC4B0C33BF9
:104A9000535BEABA20B6F43A460639BC170F6FBC2E
:104AA00032AEB8BA172E2B3A87C3D23AC77F81BB32
:104AB00092744DBC58757EBFDF157DBFFE6280BF0E
:104AC000E7AB7CBF9A997DBF6C3E7ABF1FF67ABF79
:104AD000E4D67CBFA04E7DBF2F897BBFE86A7BBF39
:104AE000FC017BBFBE147ABF193C7CBFC4EE7BBF08
:104AF0008AE47BBFDF517BBF1D8F79BF7AAA7BBF62
:104B00007C7B7FBF3D497EBFB9A97DBFD13D7BBFC7
:104B10000A2F7DBFCAFE7DBF10EA7ABF6C977ABFAD
:104B2000FC527BBF327480BF72C07EBFD3F87DBFA2
:104B3000418379BF23DC78BF446F79BF64EA7EBFCD
:104B4000B98A79BFDFA77EBF70237DBF0CB180BF5C
:104B500043577EBF66497CBFE8D87DBF61E07DBF1B
:104B6000EB1D7ABF132B7BBF16877BBF8D427ABFAD
:104B7000DA047CBFFB777DBFACAC79BF20457DBF3D
:104B8000DC0F7CBF1C277DBFF94B7FBF89427FBFF5
:104B90008C847EBF361E7CBF97FE79BF857A7ABF34
:104BA0002F6B7ABF9CA67FBFB24A7DBFBB0A79BF7D
:104BB0004ED27CBF64B179BF90C07FBF3E257FBF1E
:104BC00065A979BF2E7578BFCCEF7CBF14937FBFEA
:104BD000234C7DBF7BD88BBC091607BC745F4E3B52
:104BE000E010AABBB6BD5D3C0B638B3C11C73ABC61
:104BF0001CD2283A27301DBC4051D9BAB3EF8A39AC
:104C00008BA45D3CE597C13ADC2F1FBCA3C9453C92
:104C1000A8A70F3AD449B6BC9E5EA93CEC6907BC74
:104C2000CE35CC3ABF0CC63BBCCE86BC634763BA1C
:104C300027BE5A3C67D2A63BE57C313C118DEEB9CC
:104C4000847F91BCCB80B33B670A1D3CCE35CC3A08
:104C500036061DBACF6996BCE690D43B2733DEBB3F
:104C600066DC54BAA801033B7DCB9CBBC79F28BC24
:104C70004EB4AB3B1E1B81BA99BB16BA88B9A43B94
:104C8000DD5E523B9D0D793CE6771ABB2176A63B53
:104C90001C951BBBDD23833FE7517D3FE336843FFB
:104CA000FFCC803F001A833FA2987C3F51A0833FF6
:104CB000664B803FF984803F19AB813FBDAC833F99
:104CC000CCD27A3F2922833FA246813F282A833FC4
:104CD000E50A813FBF0D813FC91F823F65FE813FCD
:104CE00015C7833F4D48833F6809823FD3A2823F67
:104CF00089EF843FAD6AC93CFB204B3C9E25C8BA76
:104D00008318683C575D87BBAEF45ABB5BEB0BBCAA
:104D100099BB163CA680343C77499C3C904C07BD1F
:104D2000E5F1343BAC1F9BBB0AF489BBA08B863BEF
:104D300085B4C63BF4E06EBBD46105BCB5C1893A0D
:104D4000608F893B44A426BC191D103C1AE0023B2D
:104D5000A181D8BCB16E70BF1A3371BF5E4972BFFA
:104D60002EA972BFA83A70BF6FBC6FBF73B872BF75
:104D70007A3772BF24F067BF782872BFBA8770BFD6
:104D80004C5370BFBB0C6FBF16A471BFD0F06EBF89
:104D900022DF71BF0E156BBFF22871BFADA36EBFCE
:104DA00065516CBF545570BF4F9272BFEAEC6CBF37
:104DB00049BC70BF6E4F8C3FD28B883FC66A8D3F17
:104DC000E02A8B3FEDD3893FB96E883F5E138C3F5D
:104DD00067B8893F40FC863FBA81863F4CC38A3F13
:104DE000B7ED873FA1F6893FAF438B3FB08D8C3F36
:104DF000C250873FE127863FE8BF893F999D8B3F9F
:104E0000DF8B893FE2AE8A3F7A6C8B3F3BFD883F68
:104E100053EC883FD0B98B3F53E7873FD40B8C3F8F
:104E20006A168C3FE734893FB85B883FEBFC8B3FC9
:104E30000B7D8A3F8D26893F6FF5863F77F4893F4A
:104E40000D18863F226F8B3F72C3893F3FC7893F52
:104E50007B2E893F24B7863FDC118A3F86718B3FCA
:104E600022338B3F2AE1893F2D938B3F446C8A3F4D
:104E7000A5168A3F3C4F70BFC2186DBF6FD76FBF7A
:104E8000B9A56DBF7A516FBF75216EBF4F9272BFCA
:104E900026AA6FBF6EA573BF072974BF8E3D73BF6F
:104EA00033156EBF17B771BF869073BFB28372BFE1
:104EB000DD956DBFA7956ABF64E56FBFADC272BFD8
:104EC000C1FF72BFB72770BF361F6FBFFE6173BFD0
:104ED0000C7471BF780B8A3F93C8863F59BE8C3FD4
:104EE0008882893F82E38A3F2F19893F946C8B3FE8
:104EF000C537883FE272863F8601893FF5A08A3F29
:104F00000F7F853FA88F8A3F2DD08A3FF3FF8A3FCE
:104F1000AF7A8A3FF92D863F48348B3FDD988C3F2E
:104F20007FA5893F16BE8A3F5D158A3F9D858B3FD1
:104F300085B3893F3A040E3B6F1283BA4F779E3A8E
:104F4000577B583C5B0B33BAB58A7EBADA8E293C64
:104F50000A80713B1D015C3C03B081BC9D4CDC3B75
:104F6000DFC23A3CD40FEABBFE98D63BA1806D3B32
:104F70003C33C1BA8C4C403CE94919BBA5BEACBC22
:104F8000FBE5933C3194933C80D67CBB56F572BCD8
:104F900095F3C5BBA2D2843F96D1823FE4F3863F0E
:104FA000392B863FAD4D853F91B7843FEB71853FEF
:104FB000CDAF843F6380823FFC51823FBA81863F00
:104FC0006EBF823F9754873F6B10823FDFA5843FBF
:104FD0008D0A823F8D967F3F4B73853F32AA843F77
:104FE000A94D863F0344853FF2EB853F43AA863FA8
:104FF000D26D853F4FAC733FD237713F691A743F12
:105000005517783F83A2753F58E6753F438D763F2D
:10501000D123723FF642753F6134733F65FE753FA1
:10502000A33B703FD601743F137D723F3F35763FFF
:10503000B0C9723F21AF6F3F3ECC763F508A763F7A
:105040004AF0763F2BF8753FCA1B783F3293783F82
:1050500023F97A3FBBEDC2BCCE354C3C2713B73B9E
:10506000EFE6A93B28F38FBB6519623B97A8DE3BAF
:10507000C556503C41D73E3B7C48F8BBD0B4C4BB7E
:10508000AB798EBC5985CDB9520FD13AA8AAD0BB05
:10509000A2ED98BB8F6F6F3C0B7F86BCC172843BC7
:1050A0008D286D3CC84189BCDB15FABBFB78683C98
:1050B00096E9973B287E0CBC1DCBBB3B1DE4F5BAA3
:1050C00028B9C33B973A483C9AB4A93B514CDEB946
:1050D000ED0D3EBBA6D1E4BB9C5349379E62553AC9
:1050E000AEF45A3C037AE13B9354A6BA3B1DC83B4D
:1050F00093AAEDBBAF5D5A3BF31C11BC1650283C84
:10510000DB15FAB919C65D3A6555043C5AD5923C8F
:105110002A3BFDBAC4EB76BFEAB274BF1A3177BF3F
:10512000DFC577BF6B0D71BF217573BF2FE178BFEE
:105130006C9673BF0F2873BF4EB873BF26E176BF5E
:10514000E65975BFC97474BF562B73BF11AC7ABFD3
:105150001EFE72BF430276BFE8DB72BFAEB977BFF7
:105160007C4878BFA96B75BF0F4773BF3D827BBF7B
:10517000577A79BF3F547ABFAED877BF4D157CBF01
:1051800052437BBF79E679BF1C957FBFDD5C78BF5A
:10519000247C7FBF3E7879BF17F579BF840D77BF38
:1051A000022B77BFB0E87ABF47907ABF12C17CBFAD
:1051B000E16279BF6FD979BF09187DBF4D317BBFDF
:1051C000075D7EBF1F307FBFE7357EBF910C79BF83
:1051D000D9B37BBF66D913BA9E0C0EBC083BC53B46
:1051E00025ADF8BB3178183CD2553A3C702450BB01
:1051F0006821813C21CCEDBBB1C318BB25CC343C2C
:10520000FE9C82BB38A025BC7F87A2395D52353C0D
:10521000BF0A70BCCF81E5BBDF50783B4227043C1E
:10522000516603BC28293039D4298F3BC63629BCA6
:10523000B189CCBBF818ACBBA741D13BD313163B0B
:10524000B14E153C7061DDBAAD4ECEBA04CA26BB74
:1052500007B21EBC3C83063CBB9BA73B2BBE213C3C
:105260002846163B037A613C78CF01BC68E89FBAB8
:10527000DCF552BC163518BC6808C7BB7B32FFBAD8
:105280008D437D3C4565C3BBE97FB93B7C7F833B58
:105290009626A5BBAB083BBF2F313ABFB2F439BF4E
:1052A000EAE739BFF0523ABF363B3ABFC7643DBF69
:1052B00028F43ABF6DAA36BF31093BBFAA2A38BFCE
:1052C00017D338BFB83C3ABFB98B38BF1DE93CBFD4
:1052D00007CE39BFC18E37BFAEB63ABFD6AB3CBFE3
:1052E00068943ABF0E8339BF118D3EBF07EE3CBFB5
:1052F0006A6C3FBF12A076BE4A5EA5BE84D76EBE62
:10530000E54483BE170F97BEFEB78ABE1F8676BEE2
:10531000DC2B93BEFCC3A6BE2ACA9DBE427C88BEBF
:10532000C91DAEBE59A687BEF2B58FBE14E97EBEBA
:10533000E1D394BE8560B5BE38DC87BE9B3974BEB0
:105340005FD280BE53598CBE3F378CBEC5C882BE6B
:105350004CFA83BEFFCB693FCC29093F1215363F7B
:10536000A5862E3F3F37103FB900103F08C90E3FBA
:10537000766D0B3F55670D3FB9880B3FE371113FC9
:105380005CE30B3F103C2A3FF567033F7FF7023F8A
:1053900020980B3F793F023F2C0E0F3F8A5B553F11
:1053A000DF8C0E3F8F500B3F705D093F65FF083F5C
:1053B0007CB90B3FB728633FD15BEC3EBAA1293FD4
:1053C000CC791E3F645BFE3EC005013F88DA063F94
:1053D000E19AFB3E2EE2EB3E02D6EA3EDE58F03E7C
:1053E0002026F13E96CC1D3FFC1CEF3EABB3E23EC7
:1053F00013F0FB3E4697E73E57CEF63E8A58443FB1
:10540000DCF3FC3E83FAE63E787DF63E6974F73EB7
:105410009599E23E113A703FE8DD0C3FDB193A3FC7
:105420006A17373F5BCD123F249D113F096E103F35
:105430006364153F419D0E3F8A3D0C3F0646123F77
:10544000E3C6113FB8052F3F60590D3F4452073F57
:10545000AB7B0C3F5E68063FC3EF123F6F0D543FBE
:10546000AD85153FF3580B3F5E120F3F132B0B3FDB
:105470006B0F0B3F5F416A3FF966073FC3D5393F6A
:10548000073F293F6878073F213D0D3FE3180D3F57
:10549000821C103FB9FF083F99B7063F9DBD0B3FE7
:1054A0004183093FF4A7293FF5D6043F2978023FFD
:1054B0002C9A0E3F49650A3F5A0F073F7AFD513F2C
:1054C0009DA10C3F601E0A3F7349093FFED1073F73
:1054D00066DA023F3734653F056D023FFDD92F3F45
:1054E0001093283F72E0053F64AF0B3FA33C0B3F96
:1054F000C32A0A3F5A2E073FFAB3033F5E9F093F74
:1055000011380A3F5933223FA8C7FE3E997FF43E27
:1055100050AB043FBC59FB3EA3AE053F61534B3F2C
:10552000D159063F0552FA3E5F95033F53EBFD3ECE
:105530008FE3033F1685693F9A5C043FA851303FD3
:1055400086372B3F469A003F50370C3F5D32063F6F
:10555000D9AF073F3C15F83E8E58033FFB22053F6D
:105560002D99033FCEAA273F1536F33E15ADFC3EDD
:105570009E62053FEB52FB3E2255043F5B3F4D3F91
:105580007231063F1615013F51F8003FF1D5FE3E3E
:105590007BA0013F3E216F3F7F6A0C3FB0E5393F62
:1055A0009301343F00530E3F6DCA113FC8EE0E3FCA
:1055B000B4E70E3F5BD10A3F295B0C3F2158113FF6
:1055C00051120E3FBCE82B3FA6430B3FF78E063F20
:1055D0001F4C0E3FA14A053FB22E0A3FC51D533F47
:1055E00040FC0C3FA510083F1E1B093FEE08073F7B
:1055F000215A073F8A3C653F793AFF3EC6A4333FB4
:105600008D9B263F90BE013F9D2A0F3FA7CC093FAF
:10561000D28F0A3FB988033F8EAC003FDFDE053FE3
:105620005470003FEE7B203FD40BF63E8A57F93E84
:105630001FF7053F7D92FB3E0B7F023F556D473FB5
:10564000BE16043FDA39FD3EA4C7FF3EE8D8F93E56
:105650005A2E033F1C5C623FF034F13E97AE2C3F64
:105660006A32233F4853F53E6BF2003F8464053FA6
:105670000587FF3E999BF73E78D0F43E179BFE3E90
:105680002EFEEE3EE7A7203F8FA5DF3E0B96E23EC3
:105690007C0C023FD882E63EBEA4F13E40F7453F77
:1056A000378DFD3E9FE5E93E2FFC003F8290E43EB2
:1056B000DEADE43E5EB95E3FFCC5F43E6C792D3F45
:1056C0000E16223F4756023FEC8A053FCCED063FBF
:1056D0008ECC033FB16CFE3E070AEC3EBCB0FD3EF3
:1056E00069ABFA3EE2731F3F2239F13ECFA0E93E9B
:1056F000DA8FFC3EF20CF23E0BB5FE3EDA37433F4A
:10570000535EFB3E28D4F33E4947F93E51BCF23E7E
:10571000A81BF83E19556A3F3DD5053FB533383FC4
:10572000D718303F001D0A3F368F0F3F94300B3F94
:10573000012F0B3F1C08093F417F053FF4F8093F4B
:1057400073BE043F40BE243F0BD4023F1382013F8F
:10575000AA0D0A3F3A02003F64570A3F944B4F3F5D
:105760009E400C3F77A2043F7495063F823C073F62
:10577000C8D1FC3EB7EE5A3F3BC4DF3EC6A32C3F28
:105780003B53203FD504E93E419FF83E9566FB3EE2
:10579000E068FF3EA33DE63E0798E93E785EF23EB4
:1057A0004754F03E5299163FED9BE33E7FD9D53EDC
:1057B000AB20E63E3D44E33E713CE73E65E2423FBE
:1057C000B16BF33E2464E03ECC63E53ED2C4E33EDD
:1057D000E239E33E266E693F3275073F6AA0353FE6
:1057E000BA852E3F5F600A3F662E0C3F73810B3FE8
:1057F0001B660C3FC1FE033F3D10013FA1BE093FA8
:105800005F95073FF60A2B3F7A89053FBD54043F59
:10581000B98C0B3F4E7F023F552E0C3FAE11513FCE
:1058200041F00C3FDF4E063F9607093FFB20073F44
:1058300094D9043F081D683F66F6013F71AF303FC1
:105840001EFB293F1B66043F59DA0D3FD90A063F6C
:10585000D28F0A3F849A053FB58CFC3EC83F073F74
:105860002576053F12BD203F6937023FD994FB3EA4
:105870007556033F54C6FF3E6496053F0F994E3F51
:105880001138063FB3B7FC3EBC74033F6D56013F71
:105890003202023FA6446A3F185D063FE5453A3FA3
:1058A0000F0E2E3FBB980A3FE6220E3F51A50E3F3A
:1058B0007078113F187A083F06F3073F3124133FF1
:1058C000C9560B3F8E3B293F94D9043F6CB4083F27
:1058D0009F71113F1A4E013FC37F0E3F80EE4F3F35
:1058E000F6260E3F3998093FF9D60B3F83C2043F95
:1058F0001570073F00E1633F5054FE3EE7C82E3F5E
:105900009AB1283FADC1033FE78E0A3FA453073F3A
:105910009258063F446D033FB916FD3E3887033F5A
:105920008690033F20D1203FB4C8F63E3B1BEA3EA1
:10593000A2B6013F1D3AF53EF0FC063F41F3493F58
:10594000433C023F8F54F73E828B013F89F0F73E84
:105950001C41FA3E71045D3F9356E43EDC67253FEF
:1059600055C2173F3E3FEC3E4F06F73ECF32FB3E5F
:105970005D31F33E19E3EB3E129FE33EDE54EC3E15
:10598000DBE0E43ED7A0173FC1E3DB3E0EA2DD3EE5
:105990003869EA3E9911DE3EFF21E53EB9333B3FCF
:1059A000B8B1E93EB550E23EAB42EB3E6AFAD43EB6
:1059B0004C8BE23EB8226D3F8731013F6D8E2F3F09
:1059C000F50F323FBD34053F465B113F14240E3FB7
:1059D000A5160A3FCB82053F1E8D073F0BEF0E3FFA
:1059E000404D053F1904263FB840063F0AF2FB3EF2
:1059F00063470B3F467CFF3E46EB043F2F89533FF6
:105A000046B1083F0C73063F5919053F3FFD033F60
:105A10000C02033FD32E6E3F59140E3F13BA3B3F87
:105A2000DD40313F0B46093FB5DF0E3FBDE00F3F84
:105A30001EC00E3FB3450E3FC8250E3FB8EA0E3FCD
:105A4000D74D0D3F971E293F2979053FD1AD073F1F
:105A5000A54A103F57ED063F3C660C3F22FA513FE6
:105A6000E21E0F3FBC93073F5B0B0B3F56B8053F51
:105A700011AC0A3F6A31703FA1BC073F3048363F46
:105A8000A67C303F19710D3FF6460D3F274D0F3F65
:105A90005A830F3F14070C3FE6C9093FF1D90A3F6B
:105AA000DF6C073F13F1223F0519053FBDA8FD3EFE
:105AB00011FD0E3F9948053FC172083F2159503FE3
:105AC00049680F3F0FEF093F514B073FED0F043F70
